:020000040800F2
:20000000901C0020A50100087F160008811500087D160008CD070008D121000800000000BA
:20002000000000000000000000000000951E000855080008000000006F17000807200008E3
:20004000BF010008BF010008BF010008BF010008BF010008BF010008BF010008BF01000860
:20006000BF010008BF010008BF010008BF010008BF010008BF010008BF010008BF01000840
:20008000BF010008BF010008BF010008BF010008BF010008BF010008BF010008BF01000820
:2000A000BF01000849200008BF010008BF010008BF010008BF010008BF010008BF01000857
:2000C000BF010008BF010008BF01000899190008BF010008BF010008BF010008BF010008EE
:2000E000BF010008BF010008BF010008BF010008BF010008BF010008BF010008BF010008C0
:20010000BF010008BF010008BF010008BF010008BF010008BF010008BF010008BF0100089F
:20012000BF010008BF010008BF010008BF010008BF010008BF010008BF010008BF0100087F
:20014000BF010008BF010008BF01000800000000BF010008BF01000885150008BF0100084D
:20016000BF010008BF010008BF010008BF010008BF010008BF0100080000000000000000CF
:20018000BF010008BF010008DFF80CD000F06CF800480047E5260008901C0020D0F800D0C2
:2001A000D0F804F00648804706480047FEE7FEE7FEE7FEE7FEE7FEE7FEE7FEE7FEE7FEE7E7
:2001C0000920000889010008A0F14101192900D820307047421C10F8011B0029FBD1801A57
:2001E000704710B5002200E0521C835C8C5CA34201D1002BF8D1D8B2E1B2401A10BD2DE947
:20020000F05F0546002092469B4688460646814640241BE0284641464746224600F045F814
:2002200053465A46C01A914110D311461846224600F02CF82D1A67EB01084F462246012005
:20024000002100F023F817EB00094E41201EA4F10104DFDC484631462A46434600F000B89F
:2002600030BCBDE8C09F0000064C074D06E0E06840F0010394E8070098471034AC42F6D329
:20028000FFF786FF98320008B8320008202A04DB203A00FA02F1002070479140C2F1200331
:2002A00020FA03F3194390407047202A04DB203A21FA02F00021704721FA02F3D040C2F110
:2002C0002002914008431946704740EA01039B0703D009E008C9121F08C0042AFAD203E097
:2002E00011F8013B00F8013B521EF9D27047D2B201E000F8012B491EFBD270470022F6E720
:2003000010B513460A4604461946FFF7F0FF204610BD30B504460020034600E05B1C9342EA
:2003200003D2E05CCD5C401BF8D030BD10B52E2001F0BAFDDF4CA06901300F28A06107D341
:2003400000F0A6FB10B10020A06101E000F0D8F92078BDE8104000F0B3BA00BF2DE9F04F8A
:20036000C9B0002000F0B6FACF48D0A100F078FAD0494FF47A720023087000F081FACE48F6
:2003800001F0A8FDCD4CE07A800602D5CC4801F0A1FD0620214600F01AFAE18888420AD1B5
:2003A0002078AA2813D1C94801F094FD6078F42816D0F22811E0C34801F08CFD4FF2BB10E6
:2003C00021462080062000F002FAE0802BE0BE4801F080FD6078F32825D100F091F922E0C0
:2003E000BB4801F077FDD4F802A000F0A3FBB8B9B8490020B84CB94A48604CF2FA3020616F
:200400002069104320610868012807D001200D46086000F0E1FA58B30020286001F04CF97F
:20042000B14801F057FD00F033FBE0B10446AF4801F031FD09A8624200230A210A304370DF
:2004400052B1B2FBF1F4013804EB8403A2EB430242F030032246F2E72D21017001F03AFDF9
:2004600049B000F045B949B000F045B900F048B900206860206821684905294602D4C0F37E
:20048000402009E010F40070206820F4806020604FF0030008BF0220402740F2FA78002647
:2004A000C861B7F5806F1AD0606920F400606061606920F4FF6038436061606940F002001D
:2004C0006061606940F48030606100F085FA0546606920EA0800606115B90837E1E700259D
:2004E00000F04CFA7B48002D0660606940F00040606195D10AF580700DF124090390CAF1A8
:200500000000029029F001000190754804900398029920F0FF0008444FF48071B0F5807FE4
:2005200028BF084608900AF58070009020F0FF00A0EB0A00B0F5807F28BF08460790C0F5A6
:2005400080700021012206908846D00700F0A68000F0B2FE38BB079A5046494601F03AFE94
:20056000DDF820B0069F09EB0B060AEB0B05B7F5807F0DD300F0A0FEA0B9284631464FF48D
:20058000807201F027FE0BF5807BA7F58077EAE74FB100F091FE30B9284631463A4601F036
:2005A00019FE00E0012000226FF001010028CBD1049921F00300884252D1019848454FD1F8
:2005C000206946490843206100F0B4FADFF804B14CF2FA3000262061FF2E49D820693F499F
:2005E000084320610020CBF80400DBF80000012834D059F80600059009EB06004768012092
:20060000CBF8000000F0E8F9054600BB0020059BCBF804002168490504D5206820F480608D
:2006200020600220CBF81C00606940F001006061049833503044BFF36F8F476000F0CCF9DF
:200640000546606920F00100606100F097F90020CBF80000280601D10836BDE701F02CF85A
:2006600004986FF00201002200F5807004906BE701F022F800F082F903981A4900F5807036
:2006800003900298A0F580700290049800F5807004908842DDF800A07FF639AFB8F1000FAD
:2006A0007FF4BEAEBFE600BF2D0300084170705461736B00200C0020B6310008C07F001081
:2006C000E8310008633200084F320008F73100080C3200080000002000200240053CFFFF9C
:2006E00000400008FEFF03082B3200086E32000830BCBDE8C08F30BCBDE8C04FFFF7B6BEB3
:2007000010B52E4C0A20214600F061F8E080C448416A426A521A652AFBD3EFF31081EFF3DF
:20072000108172B64FF0FF32002325490A614A610B614B618A618B610A600B604A604B60D0
:200740008A608B601F49097899B301214CF6CC420175017301741C490A6045F255520A60A7
:20076000027B002A18BF02224A60027C002A18BF40F6FF728A60426ACB685B070AD0436A55
:200780009B1A322BF8D3CB685B07F5D0EFF3108072B6FEE70A69007D002818BF40F6FF700F
:2007A000824206BF4AF6AA20086008614AF6AA200860CE48BDE81040FFF7F0BCC07F001067
:2007C00028100240EBFF030800300040FEE7F0B500224FF6FF744AF20103824204BFA0B2BD
:2007E000F0BD0D786C4008253DB183EA5406E70708BF6608013D3446F6E701320131ECE749
:200800001CB5874C207A01281DD10F480DF1070100F00CF9B8B121799DF8070011B90B4974
:2008200000220A6000212172094909680885086840F080000860086840F0400008600868E8
:2008400040F0200008601CBD6C06002018000048C40A00207047EFF3108072B6FEE70000F1
:2008600010B5454A00231C32282B04D014681CB128320133F8E7FEE7C2E90001D8B210BDEE
:20088000B0B510B1272804D9B0BD0C490C6801340C60EFF31081EFF3108472B600EB8000B3
:2008A0000125354C04F8305004EBC000C0E902230022826181F31088B0BD00BF68060020CD
:2008C0005749D1E90A1311F57A7243F10003FFF7D7BF00BF5249D1E90A23FFF7D1BF00BF66
:2008E0004F4CA07830B924484FF4C861FFF706FD0120A070204D4FF000094FF00108606A93
:20090000C4E90A0900206070C0B22728F7D8EFF31080EFF3108172B6617801EB810115F836
:2009200031201AB305EBC101D4E90A76D1E90223BA1A76EB030219D481F8009080F3108890
:20094000607800EB800305EBC300D0E9042152EA010607D005F83380D0E90236D218714169
:20096000C0E90221D0E90601884701E080F3108860780130C7E700BF280000202A481549A2
:20098000C269032A03D0022A15D0012A1FD10B6822F00102022A23F400730B600B6843F4AD
:2009A00000630B600B6823F400630B600B6843F400730B600BD10A6842F480520A600A6857
:2009C00022F480520A600A6842F480620A600021C16170470020024010B5114811494CF2BF
:2009E0005033426A0C68E40306D5446AA41A9C4224BF032010BDF5E708684CF2FA3202407D
:200A000005D00948436813434360012005E00868C0074FF0000001D001220A6010BD00BFA6
:200A2000200C0020102002400000002010B5028843889A420BD044880444A4790C70418891
:200A40008488A1421ABF4188013100214180D01A18BF012010BDB0B5048845888388621BFC
:200A6000B5FA85F50132B2FA82F252099C4208BF6A094AB904880444A171018899421ABF61
:200A8000018801310021018082F00100B0BD000010B50D4C0DA12046FFF7A3FB08B1FF207B
:200AA00010E0E06A0E49884209D00E49884208D10D480E49FFF78BFE218E814201D1002079
:200AC00000E0FE2040B210BDC0FF030828632920466C6F77204C6F6F7020464C4300000074
:200AE000AFBEADDEB88B5AA5C0BF030000400008B0B5816A022918D10168C26BD0E91134FA
:200B00000D6825F00E050D600D6825F001050D6004F01C01012404FA01F15960002141622B
:200B200084622AB19047002102E00421016401210846B0BD0648C168B1F1FF3FC4BF0020B9
:200B400070470449016004490160C068C00F70470820024023016745AB89EFCD2DE9FC4F49
:200B6000654A07244FF000084FF0010A4FF00F0E4FF0000B904200F1384208BF06244FEAFD
:200B8000B223062B38BF4FEAB224009400220C6834FA02F308BF00F0B9B80AFA02F314EADD
:200BA000030900F0A3804E6806F00304651E022D1DD20325D0F808C0D1F80CE005FA08F559
:200BC0000EFA08F72CEA050C4FF00F0E47EA0C078760C6F3001707FA02FC476827EA0303CB
:200BE00043EA0C036FEA050C4360434616E0032C0ED1C56AC6F3C004944025EA0303234324
:200C00000324C36204FA08F36FEA030C434622E0032303FA08F36FEA030C5300C7688D689F
:200C200007EA0C079D403D43022CC56013D16FF003060BF01C0406EA52060EFA04F5064406
:200C4000376A27EA05050F6907FA04F42C4334624E6806F0030404FA03F3046804EA0C0451
:200C6000234316F4403F036040D0264C234F22F0030523683D4443F001032360236803F0D0
:200C8000010301930BF00C03019E0EFA03F41E4EB446AE5926EA0404009E06FA03F3234395
:200CA00045F80C30BB684D6843EA0904EE0258BF23EA0904124BBC60AE029C461B6843EACD
:200CC000090458BF23EA0904CCF80040AE037B6843EA090458BF23EA09047C60ED033B6864
:200CE00043EA090458BF23EA09043C6008F102080BF1040B01324AE70018004800040140D6
:200D00000C0401406010024008FCFFFF1CBCBDE8E08F0000F8B50146192000F059F8274805
:200D20004FF000710160F748816D41F400318165816D01F4003100910099016801680168B0
:200D400000681F48006800F0D1F9204D1D4A1E49002340F2E734B0FBF5F0C2E90234136112
:200D60000138C2E90010156C05B9D36302231364D2E905560F6827F460773E430E60CC62D2
:200D8000886201200D634861D06650649064D064106550659065D065106650669066106433
:200DA000146C012C09D11364C86840F00100C860086840F0010008600020F8BD00E100E00D
:200DC00000200240B00B00200044014040420F0010B50B4A4FF0FF341268C2F30222D31EF0
:200DE00082F0070238BF0023042A28BF042204FA02F29143034A99400901815410BD00BFCC
:200E00000CED00E000E400E02DE9F84304464078AF4F00071ED5606E4FEAB051032908D8D6
:200E2000DFE801F002090F13201D002100F0DCFC03E001260FE000F04DFC064658B9606E4A
:200E400003E0396841F480313960F96F21F440010843F86700266078C00601D4354624E00F
:200E6000A06E4FEA3060032809D83546DFE800F0020B0F14201D002100F0B6FC05E0012522
:200E80004FF0010912E000F025FC054604E03868354640F480303860A9463DB9A06EF96FE5
:200EA000002521F040710843F867B1462068820301D44D464BE0FA6C12F0805808D1FA6C8B
:200EC00042F08052FA64FA6C02F080520092009A804ECB4B326842F4807232605A6A3168C5
:200EE000C90505D4596A891A0229F8D9032527E035BBD4F880C0D7F8841011F4407516D0BB
:200F0000654511D0D7F88410D7F8842042F4803221F44075C7F88420D7F8842022F4803220
:200F2000C7F88420C7F88450E90740F0C380D7F884104D4621F4407141EA0C01C7F8841011
:200F4000B8F1000F03D1F96C21F08051F964C10705D0A16BFA6F22F003021143F9678107FC
:200F600005D5E16BFA6F22F00C021143F967410705D5216CFA6F22F030021143F9670107F6
:200F800005D5616CFA6F22F0C0021143F967C10605D5A16CFA6F22F440721143F96781069F
:200FA00005D5E16CFA6F22F440621143F967810505D5E16DFA6F22F440221143F9674105AC
:200FC00005D5216EFA6F22F440121143F967410605D5216DFA6F22F440521143F9670106A8
:200FE00005D5616DFA6F22F440421143F967C10505D5A16DFA6F22F440321143F96701033D
:2010000013D5E16E00F096FB07D0B1F1006F0CD1396841F48011396007E0201D012100F01D
:20102000E3FB002818BF05462068410313D5216F00F080FB07D0B1F1006F0CD1396841F43E
:201040008011396007E0201D012100F0CDFB002818BF05462068400418D5606FF96F21F01D
:2010600040510143B0F1005FF96707D0B0F1805F0CD1201D022100F0B7FB04E004F120000C
:20108000022100F021FC002818BF05462068010405D5A16FFA6F22F080421143F967C003AB
:2010A00005D5E06FF96F21F000410843F8672846BDE8F8835E6A41F2883E0325D7F88410C9
:2010C00089073FF534AF596A891B7145F6D937E70C1002400070004009480A490A4A0068F1
:2010E0000968C1F3022100F001BB00BF04480549054A00680968C1F3C22100F0F7BA00BF84
:2011000020000020081002409032000810B523498A68C86812F00C0205D00C2A1FD100F01D
:20112000030001281BD108681FA3000747BF08680009D1F89400000A002A00F00F0053F804
:201140002030184618BF00200C2A21D1C86800F00300022809D0032808BF124B06E0042A39
:2011600017D0082A17D10F4810BD0D4BC868CA68C9680224C2F30622C0F30210C1F3416141
:201180005A43013004EB4101B2FBF0F0B0FBF1F010BD034810BD00200023D5E70010024001
:2011A0000024F4000048E801A0860100400D0300801A060000350C0040420F0080841E00DB
:2011C00000093D0000127A000024F40000366E010048E801006CDC02DA48816CCA6822F0B2
:2011E000A002CA60426ACB689B0644BF00207047436A9B1AB3F57A7F84BF03207047F2E7D0
:20120000200C002070B5C46D012C01D1022449E0056E012D1AD119B312B30BB3046E042C61
:201220001CBF0524046600244466C38783878163A0F844300264A0F84630C168B1F5E06F9C
:2012400012D91B491B4AC0E9132113E04468B4F5827F07D18668022416BB042DDBD01FE01C
:2012600001241DE002241BE00F49104A022BC0E9132104D301684A6822F4805203E0016849
:201280004A6842F480524A604A6842F0E0024A600A68520603D40A6842F040020A60002465
:2012A0000021C165204670BD3D1B0008B31A0008131B0008851A00082DE9F84F684B694F7A
:2012C000694CDFF8A8914FF00008202501264FF0AA0C4FF0050E4FF0000A4FF0000B1D613E
:2012E0007E728DF802C08DF803E0E06D012836D0216E012931D103212166C4F86480E68760
:201300000DF10301A687A4F84480C4F84080D4E90223A1632168B3F5E06F554B88BF4B46E4
:20132000B2F5004FC4E91383A4F8468007D10A6822F040020A600A6842F480420A604A6884
:20134000474B2025012642F0A0024A600A68520603D40A6842F040020A60C4F85C80797A95
:201360000029FCD17E72A16891B96268B2F5827F0ED104200DF102010123206620460A465E
:20138000FFF740FF364B4FF0050E4FF0AA0C41E001283FD0206E01283AD104202066C4F8CF
:2013A0006480A4F84660A4F83E802068E2684368B2F5E06F23F4805398BF03F5805343608B
:2013C000B2F5E06F2C4AA4F84460A4F83C80C4F838800DF102032364264B88BF1A46B1F54D
:2013E000004FC4E9132807D1016821F040010160016821F4804101604168194B41F0600183
:2014000041600168490603D4016841F040010160C4F85C80787A0028FCD11D60606EC8B915
:201420009DF80200C00718D05AEA0B0003D1D7F824A04FF0000B786A40F2E932B0EB0A0092
:2014400068EB0B01801A71F10000FFF648AF072000F014B8042000F011B8002000F00EB8AF
:2014600018180048200C0020480B0020191D0008351D0008D31C0008F51C000818BCBDE814
:20148000E08F0000F0B587B0EFF310802B4E2C4962B62C4F2C4D6C4604232020306000915B
:2014A0004FF0553104913061012078724FF0AA3005912146019004AA2846FFF7A3FE787AEA
:2014C0000028FCD120203060686EA8BB9DF812109DF811009DF81320090241EA00408518D6
:2014E0001A48854228D01AA000F0D5FC00208DF80F000E208DB11DA125B12D094A5D225449
:201500000138F9E73021A0F10802012A02DB21540138F8E72044013008E03021A0F10802C8
:201520002154022A01D30138F8E7204447F6300120F8021D00F0CEFC07B0F0BD181800487F
:201540009FAAAAAA200C0020480B002020BA20000D0A2A2A44464C4153482077726F6E67CB
:2015600020747970653A2030780000003031323334353637383941424344454600000000E5
:20158000FEE700001CB5964C40F60F032068C26901681A4238D0D30706D0012300F091F89E
:2015A00043F00103C4F88030930706D5022300F088F843F00403C4F88030530706D504237C
:2015C00000F07FF843F00203C4F88030130706D5082300F076F843F00803C4F880301305C0
:2015E00007D54FF4006300F06CF843F02003C4F88030D4F8803033B1920604D5890602D51C
:20160000E149096AD9B91CBD930601D58B0616D4D30242BF4FF4801101621CBD130601D503
:201620000B0612D45206EED54906ECD5016821F0400101600020A0662020A0671CBD808C1A
:20164000C0B2BDE81C4000F0B5BD64480DF10701FFF7ECF920B120689DF8071001851CBDC4
:20166000C948012101722068016821F080010160016841F0400101601CBD00BFFEE7FEE742
:2016800000900098E86C40F04000E864E86C00F0400000900098606840F400706060704783
:2016A00044686FF00F0505EB0414D56825F073052B432343D3607047606940F00040606181
:2016C00070470362D4F880307047606E40F020006066704704F12000002100F0F5B84368A2
:2016E000D468C4F3021401349C427047515C01F01F01C840704700900098E86C7047214006
:20170000846841EA04214FF07E4404EB056404F07E44704720464FF4C06132462B4600F024
:2017200019BB53E8000F116820F4D07041E80003002B7047FA6F22F040620A43B1F1806FB5
:20174000FA677047606E40F020006066032070BD41602046642100F0A7BA204631462A4613
:2017600000F04EBB30464FF47A7100F09DBA704710B5184818A1FFF773F81849824B00223F
:2017800001244A800A805A861C72D8701C711A86134A1268146844F080041460146844F0BE
:2017A0004004146020241462146844F0200414604FF480648C80102199860A4919620023FB
:2017C000116841F00101116041F28832BDE81040FFF756B8E91E000873696F006C0600201A
:2017E000C40A0020B521000870B5664AD3689B070AD0D368046803F00303A34236D1ABB3A7
:20180000FFF76DFF13D031E00368032B07D0022B29D0012B2AD11468A40706D426E0146832
:20182000A40302D41468640320D5FFF739FF136823F080631360F04B5C6A15682D0104D5BC
:201840005D6A2D1B022DF8D934E0012910D0F1B9D0E902144E4D4F4E05EA44341569354050
:2018600045EA012118E014686405DED4012070BD46491469056901F1B4612140846841EA41
:201880000421104C04EB05546FF3140404E011693E4C4569FFF733FF21431161116841F0C7
:2018A00080611160596A1468240105D45C6A641A022CF8D9032070BD8069116908431061E7
:2018C000002070BD0000E0FF70B52E4AD3689B070AD0D368046803F00303A34219D1C3B1A5
:2018E000FFF7FDFE15D118E00368032B0BD0022B05D0012B0DD11468A4070AD50BE014682C
:20190000640506D507E01468A40304D41468640301D4012070BDFFF7C3FE136823F0805383
:201920001360C74B5C6A1568AD0004D55D6A2D1B022DF8D91EE0546929B114490569FFF7F4
:20194000DEFE214309E0D0E90215114E06EA4535104E344044EA012129435161116841F0DB
:2019600080511160596A1468A40005D45C6A641A022CF8D9032070BD406951690843506177
:20198000002070BD00100240200C0020FF80FFF90000FEFFFF80FDFFBCB5AA4C20684168D5
:2019A000826812F0400303D1D50701D04D0616D4950701D50D0610D412F4B07F5ED08D06DB
:2019C0005CD5E3B1236E032B0ED100210191C1680191806801900198BCBD216D00E0E16CF0
:2019E0002046BDE8BC400847636E43F00403636600230193C368019383680193019B12F02A
:201A000020030CD0636E43F0010363660023019383680193036823F040030360019BD20529
:201A200008D5626E42F0080262660022019282680192019A626E0AB3426822F0E00242605B
:201A400001228907226619D0416821F003014160A06D40B10A49C163FFF74AF818B1606EBF
:201A600040F040006066606D40B10549C163FFF73FF818B1606E40F040006066BCBD00BFCE
:201A8000491C00080168026CCB6822F8023BB0F84630013BA0F846300264B0F846202AB9B9
:201AA0004A6822F040024A60C18F01B1704700F06BB80168B0F84620022A12D3026CCB6881
:201AC00022F8023BB0F84630023BA0F846300264B0F84620012A0FD14A6842F480524A6063
:201AE0000AE0097B026C1170016C01310164B0F846100139A0F84610B0F8461031B901680E
:201B00004A6822F060024A60C18F01B1704700F03BB8826B016832F8023BCB60C38F013BE3
:201B2000C3878263C28F32B94A6822F080024A60B0F8461001B1704700F026B810B5C28FFF
:201B4000836B4FF6FE71022A026823BF33F8024BD46083631B783FBF1373826B01328263BD
:201B600038BF0131C28F1144C187C18F39B901684A6822F080024A60B0F8461001B110BD36
:201B8000BDE81040AFF30080B0B5C04D04466A6A0068416821F02001FFF7DAFD08B1FFF7DF
:201BA00094FD606E10B10120206606E0206E0121216604282348844200D0B0BD00206872AD
:201BC000B0BD00BFB0B504460068F44D416821F060014160204664216A6A00F03BF808B12A
:201BE000FFF773FD01202066606E20B91548844204BF00206872B0BD200C0020BCB5E74DF3
:201C000004466A6A0068416821F0A001FFF7A0FD08B1FFF75AFDA06838B900200190206818
:201C2000C168019180680190019801202066606E20B90448844204BF00206872BCBD00BF82
:201C4000200C0020480B0020C06A0021A0F84610C187704770B50446406815460E46B0F522
:201C6000827F0BD1A068B0F5004F02D0B0F5806F04D12068016821F040010160FFF76DFD4C
:201C800008B1FFF75FBD6068B0F5827F0AD1A068B0F5004F02D0B0F5806F03D1FFF73AFDCD
:201CA0000028EED1002070BD70B515460E464FF4C051044632462B4600F04CF828B9FFF78A
:201CC0004CFD10B9FFF726FD08B1FFF73BBD002070BD0168026CC96822F8021BB0F84610A8
:201CE0000139A0F846100264B0F8461001B17047FFF768BF0168097B026C1170B0F84610F8
:201D00000139A0F84610016C01310164B0F8461001B17047FFF756BF826B016832F8023B68
:201D2000CB60C18F0139C1878263C18F01B17047FFF764BF826B016812780A73C18F013908
:201D4000C187816B01318163C18F01B17047FFF755BF0000FCB50024DFF87CC923268DF8B7
:201D60000340DCF824505B1B9D18494B01321B687343DCF824601B0D6B43019303689F6879
:201D80000F4204BF0020FCBDB1F5C06F04D11F7B8DF803709DF80370002AF0D0DCF82470C0
:201DA000BF1BAF4207D2019F019C013C0194002F08BF3D46E3E7596821F0E0015960416818
:201DC000B1F5827F0AD18168B1F5004F02D0B1F5806F03D1196821F040011960816AB1F58B
:201DE000005F07D1196821F400511960196841F4005119600021C165012101660320FCBD20
:201E0000F8B5F24B5C6A121B5418214A013112685D6AC2F3CB32624300920268966836060E
:201E20005CBF0020F8BD0029F8D05E6A761BA64207D2009E009F013F0097002E08BF344624
:201E4000ECE7516821F0E00151604168B1F5827F0AD18168B1F5004F02D0B1F5806F03D10F
:201E6000116821F040011160816AB1F5005F07D1116821F400511160116841F4005111609E
:201E80000021C165012101660320F8BD200C002020000020704710B50446207818B100F0F7
:201EA00003F80134F9E710BD70B5084E084D044628462146FEF7CFFD18B9FEF7A1FC013EF3
:201EC000F6D1BDE87040FEF79BBC00BFA18601006C06002080B5FFF7DEFF02A0BDE8804012
:201EE000FFF7D9BF0D0A00002DE9F84F2B4F2C4E0DF103054FF000080FF2A80B0FF2AC0A34
:201F000007F1300420462946FEF790FD002842D09DF803000D2801D00A2824D1F8690028B6
:201F2000F0D04FF0000906F800903046FEF752F9814508D216F80900FEF746F906F8090063
:201F400009F10109F1E73878C7F81880FEF7B8FC304659460722FEF7DCF968B15046FFF748
:201F60009AFF30460CE02028CCD3F9694F29C9D87054481CF861C5E7FEF78AFD28B112A0D0
:201F8000FFF7A8FFC7F81C80BCE718A0FFF7A2FFFEF7B6FBF6E700F033B800BF200C0020EE
:201FA000740A00207265626F6F740000476F74206E6F7420737570706F7274656420636F65
:201FC0006D6D616E643A20004E6F20626F6F7461626C65206170706C69636174696F6E20A1
:201FE000617661696C61626C65000000426F6F74696E67206170706C69636174696F6E00BA
:2020000018BCBDE8E08F70470C480E4B016841F4700101600A48016841F001010160002194
:20202000816002681A4002604FF48052C260026822F4802202608161704700BF88ED00E031
:2020400000100240FFFFF6EA334908680269920708D5C268920705D56FF0020202610022FE
:20206000CA6182690269520708D5C268520705D56FF0040202610022CA61826902691207C8
:2020800008D5C268120705D56FF0080202610022CA61C2690269D20608D5C268D20605D506
:2020A0006FF0100202610022CA61C1690169C9070CD0C168C90709D06FF0010101611749CA
:2020C000884203D141494A6A01324A620169090605D5C168090644BF6FF08001016101690B
:2020E000C90505D5C168090644BF6FF4807101610169490605D5C168490644BF6FF0400199
:2021000001610169890605D5C168890644BF6FF020010161704700BFB00B00200044014017
:20212000B0B5234A294C1368DD690540854204BF0020B0BD656A6D1AB5F1007F0ED21D685B
:202140006D07F1D5DD692D05EED54FF400601862FFF7E7FA14D01368FAE71368FFF7E1FA8A
:20216000FBD1104650F87C1B51E8023F114651F8784B23F0010344E80235002DF1D10FE029
:20218000106850E8020F116820F0010041E80203002BF5D1202002F17C01906702F18000BB
:2021A00020230B600021516703600320B0BD00BFC40A002010B5054C014604F13000FEF781
:2021C0004AFCE078BDE81040FEF784BB200C0020FEE700002DE9F04FC5B001910C218DF8F9
:2021E00014004FF0000ADFF8EC640DF1100EDFF8E8841FFA82F94FF0040C01278DF810104C
:20220000010A8DF815A08DF81310010C000E8DF81100DD488DF81210202101610EF10200B0
:202220000292F16D03908B46BBF1010F00F0A680F765D8F82420306E012840F09C800320D0
:2022400030660620C6F864A0F087B087C6F838E0A6F844A0C6F840A0C6E913AAA6F846A06C
:20226000B1683068B1F5004F07D1016821F040010160016841F4804101600168490603D475
:20228000016841F040010160F3687168B3F5E06F20D90029714607D1BDF81010C160039994
:2022A000B163F08F0138F0873068F38F002B4DD083689B0706D4D8F824309B1ADB087C2BAF
:2022C000F3D958E031F8023BC360B163F38F013BF387EAE709B1704615E0F18F022906D36B
:2022E000BDF81010C1604FF6FE71039807E09DF8101001734FF6FE70411CB06B0130B0631A
:20230000F38F1944F1873168F38FFBB18B689B0706D4D8F824309B1ADB087C2BF4D92AE0F6
:20232000F38F022B06D330F8023BCB60B0634FF6FE7307E000784FF6FE7301330873B06BDD
:202340000130B063F58F2B44F387DDE7FFF70AFA08B120207066B0680DF1100E4FF0040CBC
:20236000012738B9CDF810A13068C1684491806844904498706E0021F16537667068B0F531
:20238000827F08D1B06830B90129C6F860C009D10220012103E0BBF1010F7DD102204FF0EE
:2023A000010B83E1F765D8F82420306E042802D0012840F0CB80B9F1000F00F0C980306E6D
:2023C00004281CBF05203066C6F864A0A6F84690A6F83E903168F068B9F1010F4B6823F424
:2023E00080531D4698BF05F58055B0F5E06F88BF1D464D60C6F840E0A6F84490C6F838E010
:20240000C6E913AAA6F83C900B685B0603D40B6843F040030B60B0F5E06F40F2C480B9F1D3
:20242000010F704608D1BDF81000C8600399B163F08F0138F0870846316801257346F48FE8
:2024400024B9B6F84640002C00F01E818C68A4070BD5F48F4CB1012D07D130F8024B002511
:20246000CC60B063F48F013CF4878C68E4070CD0B6F846404CB1CC68012523F8024B33649D
:20248000B6F84640013CA6F84640D8F82440A41AE4087C2CD3D9F5E0F765D8F82420306E92
:2024A000012818BF022040F0FC80B9F1000F00F0F880C6F860C0C6F864A0A6F84690A6F87B
:2024C0003EA0A6F84490C6F840E0A6F83CA0C6F838A0C6E913AA3168D6E902304C68B0F56F
:2024E000E06F24F4805498BF04F58054B3F5004F4C6007D10B6823F040030B600B6823F444
:2025000080430B600B685B0603D40B6843F040030B60B0F5E06F1DD87046B6F84610A9B38F
:2025200031688B68DB0706D1D8F82410891AC9087C29F2D9A6E0097B0170306C0130306492
:20254000B6F846100139A6F84610E6E70220A8E00120A6E030687146B6F84630B3B1836869
:20256000DB0706D1D8F824309B1ADB087C2BF3D988E0C36821F8023B3164B6F84630013B95
:20258000A6F84630E8E700BF1818004830464FF47A71FFF75FFB08B120207066706E002858
:2025A00018BF012078E0B9F1010F15D1F08F022806D3BDF81000C8604FF6FE70039907E086
:2025C0009DF8100008734FF6FE70B16B01300131B163F18F0844F0870121F08F18B9B6F832
:2025E0004600002850D0306883689B071BD5F38FCBB1012917D1F18F022907D3B16B31F85E
:20260000023BC360B1634FF6FE7108E0B16B09780173B16B0131B1634FF6FE710131F38FCF
:202620001944F18700218368DB0725D0B6F8463013B3B6F84610022912D3316CC36821F803
:20264000023BB6F84630023BA6F846303164B6F8461001290FD8416841F4805141600AE0E4
:20266000007B316C0870306C01303064B6F846000138A6F846000121D8F82400801AC008E0
:202680007C28AAD903200CE0FFF76CF800280FBF00202020706601200DF1100E4FF0040CF2
:2026A000012700214FF0000BF165376602283FF4BBAD2021064A116008B1042005E004A95E
:2026C000DDE90102FDF701FE002045B000F006B818180048480B0020200C002030BCBDE8B3
:2026E000C08F0000A6B0AB484FF6FF0201681140A94A114301600020FEF70CFBA74D88B949
:20270000286E40F001002866286E00F0010005900598A86D40F08050A865A86D00F08050B4
:2027200005900598D5F89400D5F894109C4C41F40001C5F894109B490860206800F4C0602E
:20274000B0F5007F19D02068012161F34A2032212060DFF8F809006848439349B0FBF1F0FE
:20276000002101306369013841F100025B0501D5002AF7D16069400557D4206840F48070C1
:202780002060D5F8900020F01800C5F89000A868E96800F00C00082805D00C2849D101F046
:2027A0000301032945D12968D5F89410DFF8A07941F00101C5F89410796AD5F89420920750
:2027C00004D47A6A521A022AF7D98CE0A96D11F0805108D1AA6D42F08052AA65AA6D02F075
:2027E00080520592059A2268D2050CD4226842F4807222607A6A2368DB0504D47B6A9B1A9B
:20280000022BF8D96FE0D5F8902041F2883342F00102C5F890207A6AD5F89060B60717D415
:202820007E6AB61A9E42F7D95DE0EFF3108072B6FEE7296841F480312960DFF814194A6ABC
:202840002B689B03B0D44B6A9B1A642BF8D94AE019B9A96D21F08051A965E968534A1140B8
:2028600040F61322914213D1286880013FD4286840F080702860E86840F08070E860786A40
:202880002968890133D4796A091A0329F8D32AE00C2828D02868400125D42868C00022D4D3
:2028A000286820F080702860786A2968890104D5796A091A0229F8D915E0E8683C49084016
:2028C00000F61320E860286840F080702860E86840F08070E860786A2968890107D4796ADC
:2028E000091A0229F8D9EFF3108072B6FEE731480168490709D40168042262F302010160E3
:20290000016801F00701042940D1296889013DD5A96841F2883241F00301A960796AAB68B8
:2029200003F00C030C2B04D07B6A5B1A9342F6D92CE0A96821F0F001A960016801F0070102
:20294000052909D30168042262F302010160006800F00700042819D1A86820F4E060A86044
:20296000A86820F46050A860FEF7D0FBA9680FF2E472C1F30311515C01F01F01C840DFF8EE
:20298000CC1708601020FEF7C5F9A8B1EFF3108072B6FEE70CED00E00003FA050010024004
:2029A00000700040C87F001040420F00737F62068C809DF9002002400026DA490DF11408BE
:2029C000DFF8A4A7CDE90866E86C8B4640F00400E864E86C00F00400FEF78DFE40F02000F4
:2029E000E864E86C00F02000FEF785FE40F08000E864E86C00F08000FEF77DFE40F002004D
:202A0000E864E86C00F00200FEF775FE40F01000E864E86C00F01000FEF76DFE40F0080044
:202A2000E864E86C00F00800FEF72AFEE86C40F00100E864E86C00F00100009000984FF460
:202A40008040C1F810044FF4806008614FF400600860B549202088614FF4C1504146CDE99A
:202A6000066605900BF5FD60D04702204146CDE906660590AD48D0474FF480404FF0010929
:202A80004146CDE9076605900BF57A70CDF81890D0474FF4406041460896CDE9069605909A
:202AA000A24800F50060D0479F48CDE906964FF0200941460896CDF81490D047DFF8ACB641
:202AC0000C214FF4612004F5805ACBE90866CBE900A0CBE90266CBE90461CBF81860DBF879
:202AE000780030B14FF0000C00224FF0000E504646E008F104008021CBF87460FDF7FEFBE5
:202B00004046CDF81490FEF77FF9002840F0F582E86DE9460226494640F00100E865E86D7C
:202B200000F00100FEF7ACFD0820019604900320039000200290802000907B488046FEF79D
:202B40000DF8082049460490032003900120CDE901604FF4807000904046FDF7FFFF462096
:202B60000021FEF735F9724840210DF114084160DBE902ECDBE90421DBF81860DBF8000082
:202B8000242342EA0E02CBF878300A436949036823F001030360DBF81CE0036842EA0E02ED
:202BA000194011430160416821F4405141EA0C014160DBF82010504518BF0E43816821F421
:202BC0003061314381605C49884214D05B49884215D05B49884216D05A49884217D05A491E
:202BE000884218D05949884240F05980D5F888200FF2845314E0D5F888108A080EE0D5F8BB
:202C000088100A090AE0D5F888108A0906E0D5F888100A0A02E0D5F888108A0ADFF854358D
:202C200002F0030153F82120504514D0BEF5004F23D1082A00F228824548DFE812F0090076
:202C400052005B00250255002502250225025900FEF742FA4AE0082A00F216823C48DFE81B
:202C600012F0090013022600130220001302130213022400FEF730FA15E0082A00F20482B8
:202C80003348DFE812F009004C006F00010269000102010201026D00FEF71EFA5EE01022CD
:202CA000C2E7FEF733FA10B96CE04FF40040DBF8042002EB42018842C0F0E681B0EB023FCD
:202CC00000F2E281010E000210EB520041F100010023FDF794FA1F4AA0F5407191424ED3C6
:202CE000D2E1FEF703FA01E0FEF710FA10B949E04FF40040DBF804104A0802EB40004FF62F
:202D0000EF72B0FBF1F0A0F11001914200F2BC814FF6F0710140C0F3420008442FE0FEF7F6
:202D2000E5F91BE0180C0048001800480004004804E100E0F369FFEF004400400048004087
:202D4000004C00400050004000800040003801400024F40000FD0F00FEF7D8F910B911E07A
:202D60004FF40040DBF804104FF6EF7200EB5100B0FBF1F0A0F11001914200F28581DBF83B
:202D80000010C860DBF824100020CBE91900002961D0CA0708D0DBF80020DBF82830566828
:202DA00026F40036334353608A0708D5DBF80020DBF82C30566826F48036334353604A0702
:202DC00008D5DBF80020DBF83030566826F48026334353600A0708D5DBF80020DBF8343031
:202DE000566826F4004633435360CA0608D5DBF80020DBF83830966826F48056334393605A
:202E00008A0608D5DBF80020DBF83C30966826F40056334393604A0612D5DBF80020DBF83F
:202E20004030566826F480161E43B3F5801F566006D1DBF84430566826F4C0063343536071
:202E4000090608D5DBF80010DBF848204B6823F400231A434A60DBF800104A6822F49042F7
:202E60004A608A6822F02A028A600A6842F001020A60CBF88000D7F824900868000709D562
:202E80004FF400104946FFF74BF9002840F0FF80DBF800100868400707D54FF48000494677
:202EA000FFF73EF9002840F0F280DFF8DC922020002607214FF400724FF0080A4FF482730A
:202EC000CBF87800CBF87C00CBF860604FF4E060CBF87460C9E90A6104F54041C9E9086624
:202EE000C9E90C6AC9E90306C9E90562C9F81C6089E84A00D9F860207ABBC9F85C60286E45
:202F000040F480502866286E00F4805005900598E86C40F04000E864E86C00F0400005906A
:202F20000598606840F400706060052009900320CDE90760022006901C200590894805A9C2
:202F4000FDF70CFE23200021FDF742FF8848C0F800A0D9F80010D9F80C00022240F4006339
:202F6000C9F86020B0F5E06F00F470600A6822F040020A6098BF0126B3F5706F1CBF002325
:202F8000C9F828304FEA063CD9E90134D9E9046240EA0C0007F1480C03F4827304F40444D0
:202FA00002F00102234406F0020423441A44D9F8183003F400742244D9F81C4004F03804AD
:202FC0002244D9F8204004F080042244D9F8284004F4005422436D4C0A60042202EA134208
:202FE0007F231043D9F8242002F010021043D9F8342002F008021043FF22486000210120F1
:20300000C9F86410C9F86000A4F10800C7E91521C7E917117966ACE80B00FA6EBAB9B96687
:2030200008F104007C21FDF769F94FF4807025904FF4003005904046FDF7E6FE00285CD1FD
:20304000D5F8900040F40040C5F89000B86C0221F966CA21416253214162C16849061CD49F
:203060004FF0FF3101220323C160796AC568D64346EA9515ED070ED17D6A6D1AB5F57A7F90
:20308000F4D9FB660022F1E70020CBE91900EFF3108072B6FEE7D1072BD081683C4A07F162
:2030A0004C06114081606CCE396E324311438268114381600561016941EA0341016160685A
:2030C00020F0800060602068800605D4FEF784F8C8B10320F8660CE0206820F0200020602A
:2030E000FEF77AF858B10320F866206840F020002060EFF3108072B6FEE7FDF7ACFB2068E5
:2031000040F020002060B86CF96D7A6E0124C36C114323F00303C364C26C1143C164FF21BE
:203120004162FC66EFF3108062B6B87828B919484FF4C861FDF7E2F8BC70FEF7A3F9FEF7A2
:2031400017FBFDF70BF9FDF7CBFB00BF20000020200C002000000000000000000102030456
:2031600006070809001800485D0B0008C40A002004E100E0803200080100000004000000EF
:203180000200000008000000480B002008280040BFFF8FFF2800002002E008C8121F08C102
:2031A000002AFAD170477047002001E001C1121F002AFBD170470D0A0A5357545F50726F5C
:2031C000746F74797065203033313232312D3030303120426F6F746C6F616465722028762A
:2031E00065723A322E3429005744542072657365742E2E2E212100574F524D2073746172E4
:20320000742066726F6D204150504C0041637469766174696E67204E657720444655204660
:2032200069726D776172652E2E2E0041637469766174696E6720444655204669726D77617E
:203240007265202D206661696C656420213F00574F524D2073746172742066726F6D20427C
:20326000544C00434F4C44207374617274004669726D77617265204E4F54204F4B3A2000DC
:20328000000000000400000002000000080000000000000001020304B83200080000002004
:2032A0002800000098310008E032000828000020681C0000A831000800000000000000004E
:2032C00000000000000000000100000000000000000000000000000000093D0000000000A7
:20400000006E00209D4100081928010885040108B91B0108956A0008F597010800000000D7
:20402000000000000000000000000000A963010801AB000800000000B13D0108E98201084C
:20404000B7410008B7410008B7410008B7410008B7410008B7410008B741000891AC00081B
:20406000B7410008B74100089DAC0008D5A60008B7410008B7410008B7410008B74100086C
:20408000B7410008B7410008B7410008B7410008B7410008B7410008B7410008A9AC0008C3
:2040A000B7410008D1830108CD830108B7410008B7410008B7410008B7410008B74100084A
:2040C000B7410008B7410008B7410008415E0108B74100082D96010839960108B741000894
:2040E00075AC0008B7410008B7410008B7410008B7410008B7410008B7410008B741000897
:20410000B7410008B7410008B7410008B7410008B7410008B7410008B7410008B74100089F
:20412000B7410008B7410008B7410008B7410008B7410008B7410008B7410008B74100087F
:20414000B7410008B7410008B741000800000000B7410008B7410008710F0108B7410008D6
:20416000B7410008B7410008B7410008B7410008B7410008B741000800000000000000003F
:20418000B7410008B7410008DFF80CD000F0F4FF0048004789E10108006E002006488047E4
:2041A00006480047FEE7FEE7FEE7FEE7FEE7FEE7FEE7FEE7FEE7FEE7898301088941000891
:2041C0002DE9F05F0546002092469B4688460646814640241BE0284641464746224600F03C
:2041E000BFFC53465A46C01A914110D311461846224600F0A6FC2D1A67EB01084F462246EE
:204200000120002100F09DFC17EB00094E41201EA4F10104DFDC484631462A46434600F0B8
:2042200000B830BCBDE8C09F00487047CC11020810B50446FFF7F8FF0068005D00F001003E
:2042400010BDA0F16101192900D8203870472DE9FE43994615468846074601AC022942D3DC
:20426000002D40D000200290A8F101004FF0FF36009022E000FB057201FB057011464A46E5
:204280009047002805DC54F82600304444F8260013E060682A4600FB057154F8040C00FB03
:2042A000057007E00B7890F800C001F801CB00F8013B521E002AF5D1764254F8040C6168A1
:2042C0008842D7DC4B462A463846FFF7C0FF54F8040C4B46A8EB0001401C00FB05702A4670
:2042E000491EFFF7B4FF00F000B806BCBDE8F88300487047DC11020838B5D0E90221491EFE
:2043000001EB410102EBC1014268C1EB011102EB81010268C1EB011102EB8102D0E9043163
:2043200001EB410103EB81013023A1F5527191FBF3F4174D6C4302EBC41291FBF3F403FB79
:20434000141100921A2902DB124B1A4400920C2291FBF2F3104C6343009C04EBC3130093A4
:2043600091FBF2F302FB13110C4A08E0491E40F2A324535C6343009C04EBC313009300299B
:20438000F4DC0146684600F00DFC009838BD00003F0C0F008051010067C20300D01102088F
:2043A00010B5431A934209D28318881803E010F8011D03F8011D521EF9D210BD40EA010398
:2043C0009B0703D009E008C9121F08C0042AFAD203E011F8013B00F8013B521EF9D210BD57
:2043E000D2B201E000F8012B491EFBD270470022F6E710B513460A4604461946FFF7F0FF4E
:20440000204610BD421E12F8013F002BFBD111F8013B02F8013B002BF9D1704710B5044692
:2044200004E00B7800F8013B03B1491C521EF8D2204610BDCAB2401E10F8011F8A4202D0BB
:204440000029F9D100207047421C10F8011B0029FBD1801A704710B5002200E0521C835CB6
:204460008C5CA34201D1002BF8D1D8B2E1B2401A10BDCBB203E00178994203D0401C521E12
:20448000F9D20020704730B504460020034600E05B1C934203D2E05CCD5C401BF8D030BD6C
:2044A00010B5044600E0401C0378002BFBD100E0401C521E04D311F8013B0370002BF7D111
:2044C00000210170204610BD034611F8012B00F8012B002AF9D11846704730B5054600201C
:2044E000034600E05B1C934205D2EC5CC85C201A01D1002CF6D130BD0022CBB20178994225
:2045000000D10246401C0029F8D11046704700000FB400B58DB010A909900B9000914FF0B5
:20452000FF300A9000200C9005480690054807906A4609A80F9900F08FFB0DB05DF814FB8B
:20454000754C0008934C00082DE9FF5F1D464FF0FF3BD5E9014691465F464FF00008A96981
:204560007F1C01988847296A824688470028F6D1BAF1FF3F0CD024F4C064002E19DD600694
:2045800014D5BAF12B0F09D0BAF12D0F0ED103E0584604B000F07EB844F48064A9697F1C8A
:2045A00001988847761E8246002E02DDBAF1300F03D0B9F1000F26D032E0A969761E44F4CE
:2045C00000747F1C019888478246002E05DDBAF1780F06D0BAF1580F03D0B9F1000F10D006
:2045E0001EE0B9F1000F02D0B9F1100F18D1A969761E24F400747F1C019888478246102053
:2046000002E0082000E00A20814609E008FB0908A969761E44F400747F1C019888478246A5
:20462000002E05DD4946504600F002FB0028EDDAE96901988847A00502D46FF00100A8E745
:20464000E00725D1600613D5600502D5C8F1000000E0404629680A1D2A600968220501D524
:20466000087015E0220701D5088011E008600FE02868011D29600068210502D580F800806A
:2046800006E0210702D5A0F8008001E0C0F8008038467EE730BCBDE8C09F2DE9FF5FD2E902
:2046A00001A74FF00008916999461446DDF838B0464601988847054659EA0B0005D009E0D0
:2046C000A169761C019888470546216A284688470028F5D1681C03D05FEACA7005D015E031
:2046E0004FF0FF3004B000F048B82068011D2160D0F800800AE05FEACA7001D108F8015B9E
:20470000A169761C7F1E019888470546002F1ADD681C18D0B9F1000F0DD0E81705EBD06066
:20472000421120F01F0059F822102A1A012090400142E0D107E0BBF1000FDCD1216A284603
:2047400088470028D7D0E16901988847BBF1000F07D1002E05DD5FEACA7002D1002188F86F
:204760000010A068B84203DDBBF1000F03D017B16FF00100B6E73046B4E730BCBDE8C09FF3
:204780002DE9F04791460F4680460446002614F8015B2DB1FFF748FD0068405DC007F6D156
:2047A0002B2D02D02D2D18D0641E4A463946204600F080FA27B13968A14201D1C7F80080BF
:2047C00071054FF002040BD54042002803DD1BF0BDFF0460A007BDE8F08746F48066E4E7DB
:2047E0000028F8DA1BF0B2FF04606FF00040F2E72DE9F05F93460F468046044600261BF053
:20480000A5FFD0F80090824614F8015B2DB1FFF70BFD0068405DC007F6D12B2D02D02D2D79
:204820001AD0641E0021CAF800105A463946204600F040FA014627B13868A04201D1C7F838
:204840000080DAF80000022809D0CAF80090700505D5484200F005B846F48066E2E70846F4
:20486000F8E730BCBDE8C09F00F0CABA00F010BB2DE9FE4F804681EA0300C00F0C460090F2
:2048800021F0004123F00045B8EB0200A94105D24046214690461C460B46024623F00040F7
:2048A000104347D0270DC7F30A00C3F30A510290401A019040286BDAC3F3130040F4801BC3
:2048C0000098924620B10023D2EB030A63EB0B0B01985946C0F14002504600F032F906461E
:2048E0000D4650465946019A00F04AF910EB08006141002487EA115284EAE7731A4340D090
:20490000009A62B3019A012A4FEA075215DC001B61EB02014FF0004202EA0752CDE9004277
:20492000001C41F5801132462B4600F038FB03B000F045B840462146F9E7001B61EB0201B1
:20494000001C41F5801300185B412018A2F5001747EB030140EAD570B6196D4111E06D0850
:204960004FEA360645EAC0754FEA0752001B61EB0201001C41F5801149084FEA30000019AC
:20498000514132462B4603B000F01CB800F0F8BA0098012240000023D0EB020263EBE07305
:2049A000009821464FEAE074B8EB000061EB0401E9E783F000435BE781F0004158E730BCD2
:2049C000BDE8C08F30BCBDE8C04FFFF7DFBF2DE9FE4F81EA030404F0004421F000410094BC
:2049E0004FF0000B23F0004350EA01045ED052EA03045BD0C3F30A54C1F30A552C44A4F20F
:204A0000F3340194A0FB0254C1F3130141F48011C3F3130343F4801301FB024400FB034E37
:204A2000840A970A44EA815447EA8357A4FB076802958D0A05FB07854FEA932C04FB0C541A
:204A40002705029D4FEA065847EA1637B5EB08056EEB070C870E920E47EA811742EA83129E
:204A6000A7FB0201B6EB0B0164EB00042B0D43EA0C335E1844EB1C50DA465146E7FB020140
:204A8000C5F313044FEA0B3343EA14534FEA0432019C43EA0603A4F10C040294009CCDE96D
:204AA00000B400F07CFA03B000F003B800200146F9E730BCBDE8C08F00F0004230F00040C5
:204AC0000AD0C10D01F56071C0F3160042EA0151C20840071143704700200146704701F0F5
:204AE000004330B421F0004150EA010206D00A0DA2F56072C1F31301002A02DC30BC0020CE
:204B00007047440F44EAC104C100E01830BC00EBC25000F0FEB930B50B4601460020202270
:204B2000012409E021FA02F59D4205D303FA02F5491B04FA02F52844151EA2F10102F1DC4F
:204B400030BD202A04DB203A00FA02F1002070479140C2F1200320FA03F319439040704787
:204B6000202A04DB203A21FA02F00021704721FA02F3D040C2F120029140084319467047A6
:204B8000202A06DBCB17203A41FA02F043EAE07306E041FA02F3D040C2F1200291400843EA
:204BA0001946704710B500683C22B0FBF2F302FB1303B0FBF2F00B60B0FBF2F302FB130316
:204BC000B0FBF2F018224B60B0FBF2F302FB1303B0FBF2F0021D8B600723B2FBF3F403FB6D
:204BE0001422800040F2B55300F66C308A61B0FBF3F2B0FBF3F403FB1400443280084A616B
:204C0000C8613B2802D3920700D0401C0022074C13460A61E25C824203D8801A5B1C0B61DB
:204C2000F8E7401CC860084610BD0000141202083A2800D2303820F02002412A01D3A2F126
:204C40003700884201D34FF0FF307047026811441378016018467047D1600449516104491D
:204C6000116200211161114600F098BA4D4C000831420008426842B1016811F8013B23B15A
:204C8000521EC0E90012184670470121C160881E704742685AB1C368016843B983688B4237
:204CA00005D0491E521CC0E90012002070474FF0FF3070472DE9F05F82460078002715466C
:204CC0008B460AF10104B946302801D09DB113E014F8010B0127782803D0582801D045B1A0
:204CE0000AE00DB1102D07D10027102514F8010B02E0082500E00A250026B0460EE005FB5B
:204D0000080005FB06F1012701EB10461FFA80F8B6F5803F00D3B94614F8010B2946FFF7E0
:204D200087FF0028EBDABBF1000F05D00FB1641E00E05446CBF80040B9F1000F06D01BF017
:204D400005FD02210160C81E00F003B848EA0640FAE730BCBDE8C09F0FB40B0010B58AB026
:204D60000FA900910E994FF00004234ACC60214CCDE9064200D004236FF00042CDE901327B
:204D80001E4A089202466B46002000F035FC0AB010BC5DF814FBF0B585B007464FF0FF3058
:204DA0000091CDE901011E46002015460C4604903B466A46314604A8FFF7CEFF04990346E8
:204DC000601825B109B1024600E022462A6000290ED0002B02DD0099814209D00094001BBC
:204DE000CDE901043B466A46314604A8FFF7B4FF05B0F0BD754C0008934C0008314200086E
:204E00002DE9F04791460E4680460446002514F8017B2FB1FFF708FA0068C05DC007F6D172
:204E20002B2F02D02D2F1ED0641E4A463146204600F001FD26B13268A24201D1C6F80080BA
:204E40006A054FF0020418D50023D0EB030563EB01025D1B934109DB0023D0EB030063EB1B
:204E60000101BDE8F08745F48065DEE71BF06EFC046000204FF00041F3E7021E71F100025A
:204E8000EFDA1BF063FC04604FF0FF304108E8E72DE9F05F93460F468046044600261BF021
:204EA00055FCD0F80090824614F8015B2DB1FFF7BBF90068405DC007F6D12B2D02D02D2D7A
:204EC0001FD0641E0021CAF800105A463946204600F0B1FC024627B13868A04201D1C7F819
:204EE0000080DAF8000002280ED0CAF8009070050AD500200346D2EB000063EB010100F04C
:204F000005B846F48066DDE71046F8E730BCBDE8C09F0029A8BF7047401C490008BF20F008
:204F20000100704710B4B0FA80FC00FA0CF050EA010404BF10BC704749B1CCF1200421FA5E
:204F400004F411FA0CF118BF012121430843A3EB0C01CB1D4FEA00614FEA102042BF002002
:204F600010BC704700EBC35010440029A4BF10BC7047401C490008BF20F0010010BC70474D
:204F800010B5141E73F1000408DA401C41F1000192185B411A4301D120F0010010BD2DE9D8
:204FA000F04D92469B4611B1B1FA81F202E0B0FA80F220329046FFF7C4FD04460F4640EA75
:204FC0000A0041EA0B0153465A46084313D0114653EA010019D0C8F140025046FFF7C0FD67
:204FE00005460E46504659464246FFF7AAFD084305D0012004E020463946BDE8F08D00206C
:20500000054346EAE0762C4337430A986305E40AA0EB08000022FD0A44EA47540A3002D54B
:2050200000200146E9E7010510196941DDE9084500196941BDE8F04DA2E72DE9F04D81EA61
:20504000030404F0004B21F0004514464FF0000A23F0004150EA050220D054EA01021DD05E
:20506000C5F30A570246C5F31303C1F31300C1F30A5640F4801543F48013A7EB0608101BC8
:20508000D64608F2FD3873EB050002D308F1010801E092185B41B8F1000F03DA0020014668
:2050A000BDE8F08D00204FF48011064684460EE0171B73EB050705D3121B63EB0503064396
:2050C0004CEA010C49084FEA300092185B4150EA0107EDD152EA030012D082EA040083EA8F
:2050E0000501084305D0101BAB4106D20122002306E000224FF0004302E06FF00102531024
:205100001AEB06004CEB085110EB0A0041EB0B01BDE8F04DFFF734BFC1F30A52C1F3130114
:2051200040F2FF3341F480119A4202DA00200146704740F233439A42A2F2334202DC524270
:20514000FFF70EBDFFF7FDBC30B5041E71F1000404DB4FF00044404264EB0101141E73F1A7
:20516000000405DB1C464FF00043524263EB0403994208BF904230BD064C074D06E0E06849
:2051800040F0010394E8070098471034AC42F6D3FEF7FEFFA85D0208C85D02082DE9F34FF6
:2051A0008BB04FF0000801F10C000C464FF0010B46460DF1080A0190626901210198904748
:2051C000051E2DD0252D2CD0216A8847C0B16269012101989047216A88470028F7D1411E90
:2051E00062690198904700E0761CA1690B988847216A88470028F7D1E1690B988847DBE7BE
:20520000A1690B9888470746A84201D1761CD3E7E1690B9888477F1C02D1B8F1000F6FD09C
:2052200046E1002762693D463946019890472A2804D162690121019890470125DFF884924C
:205240006269012101989047A0F130010A290AD24F45E5DC07EB870100EB4107303FDFD4FC
:2052600045F01005ECE7E90601D46FF000476C280AD04C2814D0682815D06A280DD0742861
:205280001CD07A281AD01DE062690121019890476C2802D045F0040514E045F002050DE07B
:2052A00045F020050AE06269012101989047682802D045F0080505E045F400656269012139
:2052C00001989047C4E9015765283DD019DC58287AD00CDC452837D004DC252826D0412818
:2052E00031D131E046282FD047282CD12CE05B2877D0612828D063287CD0642823D15AE0DA
:20530000D0E06F2848D008DC66281DD067281BD0692821D06E2816D127E0702845D0732807
:2053200068D0752847D078280DD14DE0A1690B988847054625283FF469AFE1690B988847BB
:205340006D1C3FF46AAFB3E023466A466FF001000B9900F051F99EE045F040006060A8072C
:2053600023464FF0000236D43EE0E8077FF447AF2068011D21600068290501D506701BE7F8
:20538000290701D5068017E7A90703D5F117C0E9006111E706600FE745F040006060A807B1
:2053A00023464FF0080216D41EE040F60E0125EA0100606016E045F040006060A8072346FB
:2053C0004FF00A0207D40FE045F040006060A80708D5234610226FF001000B99AFF3008036
:2053E00059E007E0234610226FF001000B99FFF7ABF850E04FF000094F464B46632802D05A
:205400005B2806D040E0E80601D40120A06001273AE062690121019890475E2805D14FF0F5
:2054200001096269494601989047216939B900210A46534643F82120491C0829FADBB0B3C8
:20544000216969B9C11700EBD16253110AEB830122F01F02821A01200B68904003430B60E9
:2054600062690121019890475D28E8D1B9F1000F09D00020514651F82020D24341F8202031
:20548000401C0828F7DB02AB224600976FF001000B99FFF702F900280CDA401C08D1BBF11E
:2054A000000F05D04FF0FF300DB000F00DB8FFE74046F9E7E90701D108F1010806444FF08F
:2054C000000B79E6CCCCCC0C30BCBDE8C08F00002DE9FF4F087883B09946FF2805D0491CBB
:2054E0002D2804D00024002008E000200BE00124F9E700EB800003EB4000491C0B78FF2B9C
:20550000F7D104B1404200230293147819461D462D2C01D02B2C04D1521C2D2C13D0002462
:205520000294AA461478FF2C0FD00A25A3FB057801FB05814FF0000C03FB0C11521CE319B3
:205540004AEB0101EEE70124EAE7814453EA010002D019F5C87F06DA03980021C0E90011C9
:2055600007B000F065B90025AE4E2F46DFF8B882184600F0C4F9CDE90001B9F1000002DA77
:20558000C9F1000400E004460023A74A1AEB030B42EB045A12E0E00707D02A46334638465A
:2055A0004146FFF714FA074688462A46334610461946FFF70CFA05460E466410002CEAD1B1
:2055C000DDE90001B9F1000F5A46534606DAFFF734FD3A464346FFF730FD05E0FFF7F7F914
:2055E0003A464346FFF7F3F9029A0AB181F00041039AC2E90001B3E72DE9FF4F1F468DB0CE
:20560000D7E901464FF0FF382E2045464FF000090B90B9696D1C0E988847396A82468847F7
:205620000028F6D1BAF1FF3F0AD024F4D064002E11DDBAF12B0F08D0BAF12D0F0BD102E0EE
:20564000404611B08DE744F48064B9696D1C0E9888478246761E6946600501D52D2000E0E0
:205660002B208DF8000001F1010B0DF1200809E0B9696D1C0E98884782460F9844F4007412
:20568000761E0560002E02DDBAF1300FF0D00B998A453ED144F0800406E00F99681CA9F174
:2056A000010944F400740860B9696D1C761E0E98884782463028F0D02BE00B998A4505D1E4
:2056C000200603D444F08004761E18E050461BF02CF908B30DF11302761EAAF1300044F45E
:2056E0000074934506D20BF8010B200607D5A9F1010003E0200602D409F101008146A00594
:2057000002D50F99681C0860B9696D1C0E9888478246002ED1DC53E0002E51DDBAF1650FAD
:2057200002D0BAF1450F4BD1A00549D5B9696D1C24F44074761E0E9888478246002E0CDD5A
:205740002B2804D0BAF12D0F07D144F48074B9696D1C0E9888478246761EE00501D52D21B2
:2057600000E02B2108F8011BCDF82C8021E00DF12901761E44F4007488450CD2AAF1300091
:2057800010F0FF0088F8000002D10B99884509D908F1010806E0E00501D5244801E042F240
:2057A0000F708146B9696D1C0E98884782460F980560002E04DD50461BF0B7F80028D6D181
:2057C000F9690E988847FF208BF8000088F800000020069007904B466A4608A906A8FFF7ED
:2057E00077FEA00502D46FF001002AE714F0240F0AD0E00714D1DDE906123868031D3B6032
:205800000068C0E900120BE0DDE90601FFF767F90146E00704D13868021D3A600068016032
:2058200028460EE7000014400000F03FF1D8FFFF30BCBDE8C08F2DE9F74F4FF00009009C9B
:205840001546CA4614F8010B302801D0ADB115E014F8010B4FF00109782803D0582801D024
:205860004DB10BE00DB1102D08D14FF00009102514F8010B02E0082500E00A2500273E460D
:20588000B8464FEAE57B16E0A5FB07230BFB073105FB080005FB0616030CD71846F1000614
:2058A0001FFA80F8381E4FF0010976F5803000D3CA4614F8010B2946FFF7BAF90028E3DAA5
:2058C000019838B1B9F1000F01D0641E00E0009C01980460BAF1000F08D01AF037FF0221CC
:2058E0000160C81E014603B000F006B8310441EA174148EA0740F6E730BCBDE8C08F0EB508
:2059000040F2334202920022CDE900221346FFF746FB03B000BD70B58C1810F8015B15F020
:20592000070301D110F8013B2A1106D110F8012B03E010F8016B01F8016B5B1EF9D12B07D0
:2059400005D40023521E0DD401F8013BFAE710F8013BCB1A921C03E013F8015B01F8015B6E
:20596000521EF9D5A142D8D3002070BD70B5044600688268836802F0040203F00803D21882
:205980005FD0C268920113D5627E012A10D1227E012A0DD10168490607D40121CAF24031BC
:2059A000013944D002685206FAD5402101600121022911D0826852070AD58268920707D498
:2059C00082684FF6C073C7F6FF731A4010328260012901D1042614E0826812070AD58268D2
:2059E000920707D482684FF6C073C7F6FF731A40203282600426022908BF0826032908BFD7
:205A00000C2607F0DDF821688968314219D0054604E000BF20688068304212D007F0D0F841
:205A2000401B0628F6D3206880683042F2D0606D40F010006065A06D40F00100A06501203A
:205A400070BD002070BD000080B50146806A436D426D13F0500F06D0D20611D4C06C426B39
:205A60000846904780BD42F40071416501680B68CA681B0707D491070BD506F0A3FA80BD24
:205A800006F0A4FA80BD12F4406FF6D1C9688904F3D4416D21F480714165416DC904ECD49F
:205AA000416D41F00101416506F08CFA80BD000080B5806A416D41F040014165816D41F0A2
:205AC0000401816506F082FA80BD000080B5806A06F07AFA80BD0000B0B5016804468A685C
:205AE0008868C0074FF0000032D012F0020218BFB0BD886800F00D00012820D188684FF628
:205B0000C072C7F6FF721040023088600320086007F056F821688968C90704BF0020B0BD51
:205B2000054603E020688068C00712D007F048F8401B0328F6D320688068C007F2D0606DD2
:205B400040F010006065A06D40F00100A0650120B0BD0020B0BD000070B504460068816822
:205B6000C90735D14FF6C076C7F6FF76816806F17F02114209D0606D40F010006065A06D36
:205B800040F00100A065012070BD8168314041F00101816007F014F821680A68D20717D154
:205BA000054603E021680868C00711D18868C00704D18868304040F00100886007F000F821
:205BC000401B0328EED320680068C007EAD1D2E7002070BDB0B582B043F2F8500024C0F618
:205BE000020037A248210023009405F0DDF841F29052C0F602020020002112F043FF05F097
:205C000051FE45F68144C2F20004207820B910F0A3FB80F001002070207820B90FF0A2FE5D
:205C200080F0010020702078D8B141F2F824C0F60204002007212246002512F023FF43F209
:205C4000F850C0F60200582122460023009505F0ABF8002064214FF4C8720BF049FA02B001
:205C6000B0BD42F25000C2F20000007870B141F29B52C0F602020020002112F003FF4BF686
:205C8000FF71C0F20301002009F0E8FA05F0C0FE0AF04CFC04F030F90EF096FC40F25010AF
:205CA000C2F20000006804F0B1FC0020642140F26C720BF01DFA01200AF04AFD02B0B0BDDF
:205CC00053797374656D20626F6F746564000000B0B504284FF0000418D842F23801C0F6BB
:205CE000020151F8200045F63831C2F20001062281E8150042F678407F230425C2F20000CA
:205D0000C1E903354C6105F0D3FF08B120B2B0BD42F67840C2F2000006F082FB40B942F6ED
:205D20007840C2F200004FF47A7106F0DFFA10B1002420B2B0BD42F67845C2F200052846BA
:205D400006F046F90446284606F054FC20B2B0BD0E281FD841F6E841C2F2000151F8200026
:205D600001043ED040F2C011C2F2000191ED000A9FED1E1A80B2B8EEC00A80EE010A01EE02
:205D8000100A9FED1B2AB8EE411A81EE021A21EE000A70479FED140A1D2821D841F6AC41B0
:205DA000C2F2000101EB800050F83C0C010408BF704740F2C011C2F2000191ED000A9FEDE3
:205DC0000B1A80B2B8EEC00A80EE010A01EE100A9FED072AB8EE411A81EE021A21EE000A18
:205DE00070479FED010A70470000000000007A4400F07F4510B584B041F2D952C0F602021B
:205E000003200021002412F03DFE49F29D70C0F6010006A105F04EFA322100220023CDE9AC
:205E20000014029405F076FA04B010BD414443204D7578207570646174652074696D6572CC
:205E40000000000080B514F049F830B144F68D10C0F6020005A114F043F845F6C250C2F272
:205E60000000002101700CF091FB80BD617420636D642074696D656F7574000070B514F052
:205E800027F868B144F6961044F68A1140F63802C0F60200C0F60201C2F2000214F03CF846
:205EA00040F63800C2F200003DA112F0FFF940B345F6C450C2F200000121017040F2181005
:205EC000C2F2000045F6C2510078C2F2000100250D7005F0CFF940F2F07640F63804C2F276
:205EE0000006C2F2000402E00135062D3BD006EB8500016B0029F7D0204688470028F3D09C
:205F000031E040F63800C2F2000026A112F0CEF998B145F6C350C2F200000121017040F2AE
:205F20001810C2F2000045F6C2510078C2F2000100220A7005F09EF915E040F2F07640F61F
:205F400038040025C2F20006C2F2000403E000BF0135062D16D056F825100029F8D02046A3
:205F600088470028F4D040F63C4040F63801C2F20000C2F200014FF48062FEF74FFA0CF07D
:205F800005FB70BD40F63C4040F63801C2F20000C2F200014FF48062FEF740FA70BD00BF0A
:205FA0004F4B00004552524F52000000B0B582B028A101AA0446FEF7ABFA01281FD101981C
:205FC00045F6D8510138B0FA80F04FEA5010C2F20001087038D140F2AC10C2F20000007821
:205FE00049F2E0320024C0F204020023009405F0EFF945F2F070C2F20000047027E019A164
:20600000204612F053F900284FF000001AD00934254600BF2978222908BF05F8010B2978B7
:206020007B2903D0002905F10105F3D12846FEF70BFA2844002100F8011C2046294613F01E
:2060400089FF012002B0B0BD002013F081FF012002B0B0BD2B534D53544154453A20256466
:20606000000000002B534D5355423A200000000070B5ACB0044600208DF817007FA12BAA95
:206080002AAB2046FEF744FA02280DD12B9840F2F411C2F2000108702A9840F2E811C2F2C2
:2060A00000010870012410E077A12BAA2046FEF72FFA01280CD12B9845F6E251C2F20001F5
:2060C000002818BF01200870012420462CB070BD0DF1170029AE00906EA12BAA2AAB2046F9
:2060E0000196FEF715FA04281ED145F2F950C2F200000DF117013022FEF790F929980928DE
:2061000053D0072841D003285FD145F22C6044F24573C2F2000000215322C5F25023C0E9F3
:20612000003281600124D0E760A12BAA0DF117032046FEF7EDF902280DD12B9800286AD014
:2061400045F2C950C2F200000DF117013022FEF765F90124B9E70DF1170558A12BAA20466D
:206160002B46FEF7D5F9022839D16AA00DF117010722FEF788F9B0FA80F045F6DF5140092A
:20618000C2F20001087001249FE745F22C6045F24C43C2F20000002143F24D12C2F2450339
:2061A000C0E90032816001248FE745F22C6045F24C43C2F20000002144F24E22C2F2450388
:2061C000C0E90032816001247FE745F22C60C2F200000021C0E900118160012475E73BA1E8
:2061E0002BAA2AAB20460095FEF792F9032817D12A98012401287FF468AF44F67642C0F625
:2062000002020220032112F053FC45F6E150C2F20000047059E700208DF81700012454E7F3
:206220002FA12BAA0DF117032046FEF771F9022801D1012449E727A828A926ADCDE9006101
:2062400002902CA12BAA2AAB20460395FEF760F906280FD12B9840F2E47188420CDB2A991D
:20626000DDE92832DDE92656CDE900650FF09AFA01242AE7002428E7012426E72B43535161
:206280003A2025642C2564002B43474154543A20256400002B434F50533A2025642C2564ED
:2062A0002C255B5E2C5D2C25640000002B43474E41504E3A2025642C257300002B41505001
:2062C000205044503A2025642C2573002B43455245473A2025642C2025642C2025730000E6
:2062E0002B434744434F4E543A2025642C202573000000002B434E54503A20312C222575D7
:206300002F25752F25752C25753A25753A25752200000000414354495645000010B512A127
:20632000044611F0C3FF68B145F6E550C2F200000124047045F6E750C2F2000000210170C2
:20634000204610BD0CA1204611F0B0FF002804BF002010BD45F6E750C2F2000001240470B0
:2063600013F0FEFD204610BD2B4350494E3A205245414459000000002B4350494E3A204ECB
:206380004F5420494E5345525445440010B582B035A101AA0446FEF7BBF8012806D10198D9
:2063A00000284FF001002AD002B010BD32A101AA2046FEF7ADF8012816D1019845F6E85161
:2063C0000138B0FA80F04FEA5010C2F2000108702CD045F6F050C2F200000021017045F6AC
:2063E000F150C2F2000020E027A1204611F05EFF88B145F6F051C2F20001012008E045F66E
:206400006441C2F20001087045F6E851C2F20001087002B010BD20A1204611F047FF40B12B
:2064200045F6F050C2F2000000210170012002B010BD1CA101AA2046FEF76AF80128F5D0E8
:206440001CA101AA2046FEF763F801284FF00000AAD101990029C8BF481E45F28451C2F2CB
:2064600000010860E2E700BF2B43414F50454E3A20302C25640000002B43415354415445DB
:206480003A20302C256400002B434144415441494E443A20300000002B4341524543563A76
:2064A000203000002B434153454E443A20302C25640000002B434153454E443A20256400B8
:2064C00010B582B01FA101AA0446FEF721F8012807D101990120C82926D0012922D000291A
:2064E00027E01CA1204611F0E1FE68B145F6C750C2F200000021017045F6C651C2F20001DA
:206500000120087002B010BD18A1204611F0CEFE00284FF0000005D045F6C751C2F2000133
:206520000870012002B010BD45F2A621C2F20001087045F6C550C2F2000000210170012061
:2065400002B010BD2B48545450544F46533A2025642C00002B43464F54413A2022557064C9
:206560006174652073756363657373002B43464F54413A2022557064617465206661696C95
:206580000000000080B50BF0B9FB44F69331C0F6020111F08BFE002808BF80BD45F6D85146
:2065A000C2F2000101220A7080BD0000B0B582B00BF0A4FB44F64461C0F6020111F076FE0E
:2065C00080B10BF095FB044641F64430C2F2000021462822FDF781FF88B341F64430C2F297
:2065E000000020E00BF08AFB44F65461C0F6020111F05CFE30B30BF07BFB044634A021463F
:206600000922FDF76AFF002841F64430C2F2000000F1280508BF0934284621462822FDF736
:206620005CFF60B1284621462822FDF7F7FE40F21A10C2F200000078002104F0FBFE01202F
:2066400002B0B0BD0BF05AFB44F64C61C0F6020111F02CFE28B30BF04BFB054641F64430EE
:20666000C2F2000000F15004204629461422FDF734FF0028E3D0204629461422FDF7CEFE49
:2066800001A90A22FEF7F2F840F21A12C2F2000245F6D0531278C2F20003C3E9000110468F
:2066A000CAE70BF02BFB44F63C61C0F6020111F0FDFD50B10BF01CFB014645F28520C2F293
:2066C00000001422FDF7AAFEB9E7002002B0B0BD5265766973696F6E3A00000080B50BF050
:2066E0000DFB44F6C861C0F6020111F0DFFD002808BF80BD45F6E851C2F2000100220A70A8
:2067000045F6F051C2F200010A7045F6F151C2F200010A7080BD0000B0B50FA1044611F085
:20672000C5FDB0B10BF0EAFA0CA111F0BFFD80B140F2B015C2F20005286813F09DFB0AA037
:2067400021460BF0BBFB296808A00BF0B7FB0120B0BD0020B0BD00BF3E00000041542B5310
:206760004D5055423D0000003C3C00003E3E000070B582B02FA1044611F098FD90B30BF06F
:20678000BDFA2DA101AAFDF7C3FE01282AD145F6685645F66C55C2F20006C2F200053068F0
:2067A0002A68BDF80410104413F058FB44F68A10C0F6020021460BF081FB30682968BDF88C
:2067C0000420014423A00BF08BFB45F6705201982968C2F2000212680844904228601FD21E
:2067E000012524E018A101AA2046FDF791FE01284FF000051BD144F68A10C0F602002146D6
:206800000BF05CFB019845F6F051FF28C2F2000180B2C8BF01250D700BF028FF012506E0AB
:2068200045F6F150C2F20000002101700125284602B070BD3E20000041542B434153454E9B
:20684000443D302C256400002B4341524543563A202564003E3E000070B582B041F23C05C9
:20686000C2F2000513460A460446284640F2FE7119F052FF13F02CFB50B144F6961041F2C5
:206880003C02C0F6020015A1C2F2000213F044FB2846FDF7D9FD0D21295245F6C450C2F270
:2068A00000000026067045F6C350C2F20000067045F6C250C2F2000001210170284613F0BF
:2068C000DBFA40F21810C2F20000007822460023009604F07DFD02B070BD00BF3E3E0000B4
:2068E00010B545F66834C2F200042078214680F001002070102001220CF03EFC207841F6EC
:20690000E57141F6DC72C0F60201C0F60202002808BF11460878002808BF10BD4C1E00BF7E
:206920000FF06EFFA07801340028F9D110BD000040F2A414C2F200042268AA2313705170A2
:20694000C2F80200062011464FF6FF7200F0E2F82168C8800FF02CFF05F0F6FF13F01EFC7C
:206960002DE9F043C1B090468146B1F580744FF6FF7515D0002601AF09EB060039464FF4F6
:20698000807208F02FFF40BBAAB24FF48070394600F0C0F806F58076A6420546ECD3B14456
:2069A00009F04AFD01A948464FF4807208F01AFF98B901A9C0202A4600F0ACF8BDF8F41081
:2069C00088420AD101A800F1C00140463222FDF7E7FCF42041B0BDE8F083F02041B0BDE843
:2069E000F083000070B582B045F2A725C2F200052978E9B940F21B16C2F2000604463078BF
:206A0000FF2807D14BF2E950C0F6000009A104F051FC3070012130782970002100220023F7
:206A2000009104F0A5FC41F69820C2F20000046002B070BD4352430010B58EB008441446C9
:206A4000403801A9322208F0CDFE10B1F0200EB010BD09F0F1FC01A920463222FDF7A0FCC7
:206A6000F4200EB010BD000040F2A414C2F2000421684FF2AA20088006204FF6FF7200F0ED
:206A800049F82168C8800FF093FE05F05DFF13F085FB0000FEE7000010B541F2FA62C0F691
:206AA000020202200021002411F0ECFF4BF69130C0F6000015A104F0FDFB40F25811C2F2D6
:206AC0000001087042F62820C2F20000402144800480818042F67020C2F200004FF400712F
:206AE0004480048081804BF66D314BF6CD32C0F60001C0F6000201204FF0FF3309F040FCF8
:206B00000BF0ACF903F098F910BD00BF636C64207278000080B588B142F2204C0139C0F68A
:206B2000020C00BF11F8013F1FFA82FED2B25A403CF81220013882EA1E22F3D190B280BDFA
:206B400080B582B044F24250C4F24160019044F24450C4F2414000906946002008220CF098
:206B60000BFB00200021002201F076FE02B080BD70B59AB001AC014620466422FDF74EFCCB
:206B80009DF8040060B100253F2600BF605D2328204608BF66550135FDF756FC8542F5D307
:206BA00001A80BF0C5F800201AB070BD70B582B0044668460EF08CFD9CB145F20C35C2F20E
:206BC0000005032604F0B4FDDDE9001085F8C660C5F8C2002846C5F8BE1003F083FD013C41
:206BE000F0D1002002B070BD2DE9F04798460D46012A05D0002A08BF01350F2805D309E038
:206C0000002D18BF013D0F2804D246F27F01C140C9074AD142F22477C0F60207072207F1D2
:206C2000300100BF824206D017F8082F002AF9D100250F4648E07E683478002C18BF5FEA10
:206C400005401DD045F69849C2F200094846FDF7FBFB8246304649465246FDF73EFC0028F6
:206C600004BF013D5FEA05400AD03046FDF7ECFB064416F8014F002C18BF5FEA0540E9D167
:206C8000B4B130460178202904D0002900F10100F8D1002078B1841B404631462246FDF75E
:206CA0007FFB002508F804500EE04FF6FF750DE04FF6FF7508E045F26002C0F60202062033
:206CC000072111F0DFFE0025387810B128B2BDE8F08745F22812C0F602020620072111F0A8
:206CE000D1FE28B2BDE8F08780B501460B3810F10A0F3CBF6FF0010080BD481EC2B2092A51
:206D00004FF0000025D840F2E8730431C2F20003D3F800C0CBB25B0053FA81F1614445F6BC
:206D2000940C8978C2F2000C3CF8123000294FF0000108BF4FF47A718B4208BF80BD41F616
:206D40004810C0F60200805C2CF8121009F056FA002080BD80B509A002F0D2FF41F63070E3
:206D6000C2F20000007841F68851C0F6020151F8201009A001F086FC002080BD436F6C64AA
:206D800020537570706C7920436F6E74726F6C6C65722E2E2E0A000020205374617465200D
:206DA000203A0925730A000070B58AB045F2546641F6CC35C2F20006C2F20005A0B102463A
:206DC00026A1684619F094FC3168E1B16C4620468847316842F23F30C0F60200884720466A
:206DE000FDF732FB01300DE0316861B145F2EF10C0F602008847316842F23F30C0F60200F8
:206E000088470420286045F2CC70C2F200000021018045F2CE70C2F20000018041F69A4073
:206E2000C2F20000018045F66050C2F20000018045F69840C2F200000170022015F0CAFCD8
:206E4000316849B142F66014C2F20004204688472046FDF7F9FA28600AB070BD2D45525234
:206E60004F522025640A00002DE9F04F87B0D6B28346082E6FF0010000F28B800122B24039
:206E800012F48B7F00F0858001F10F00C11700EB117020F00F0A02AD0FF224190FF2181861
:206EA00043A74AA4019600BF58462946102208F099FC002862D13BA0594601F0E3FB082EFE
:206EC0001CD0042E0ED0022E24D16FF0010600BFA8194188384601F0D5FB02360E2EF7D167
:206EE00022E000BF6FF00306A8194168404601F0C9FB04360C2EF7D116E000BF6FF0070667
:206F0000A819D0E90223484601F0BCFB0836082EF6D109E04FF0FF36A8194178204601F033
:206F2000B1FB01360F2EF7D12AA04F4602F0E8FE4FF0FF3905EB090090F901001F28D8BF5A
:206F40002E20C0B202F0F0FE09F10109B9F10F0FF0D142F23F30C0F6020002F0D1FE019E49
:206F60000BF1100BBAF1200FAAF1100AB94610A716A499DA002007B000F030B840F2201176
:206F8000C2F2000151F8201003A001F07BFB4FF0FF3007B000F022B84572726F723A202541
:206FA000730A00003078253038783A200000000025303478200000002530386C782000009B
:206FC000253031366C6C7820000000002530327820000000202020200000000030BCBDE855
:206FE000C08F000010B582B04FF480106FF07F4108F034F941F63471C2F20001002414204B
:2070000004220C600CF0B8F845F2BA4045F2C142C0F60200C0F6020247210023009403F043
:20702000C3FE002002B010BD2DE9F04FCDB040F21910C2F20000007840B102F0C5FE32A01F
:2070400002F05EFE02F088FE02F0BEFE33A002F0D7FE41F6347BC2F2000BDBF8005040A872
:207060000CF0D8FE00244FF480186E4642AF0FF2CC090FF2D40A0EE034A0294601F002FBC6
:207080000135280B0E2888BF002509F0D5F9DBF80000854219D008EB052031464FF48072D7
:2070A00008F0A0FB40BBDDE9000108400130E3D0DDE9001238460EF02DFB484651462A463E
:2070C0003B4601F0DFFA0134DAE742A80CF0A2FE1FA021464FF4704201F0D4FADDE9420106
:2070E000DDE94023821A61EB030322A001F0CAFA00204DB000F04AB80BA001F0C3FA4FF05B
:20710000FF304DB000F042B82044415441204C4F472028444C4F47293A0000004441544132
:20712000206C6F673A00000044464C4153482072656164206661696C65640A0025732325D6
:207140002D346420257320002020000025750D002020546F74616C202575206F7574206FA6
:2071600066206D617820257520656E74726965730A00000020204C697374696E6720746F48
:207180006F6B202575206D7365630A0030BCBDE8C08F000010B58EB001AA00204FF47031F7
:2071A000FFF7DEFBF02808D144F2BF50C0F6020001F068FA4FF0FF3404E0014600200024DE
:2071C000FFF7B6FB20460EB010BD000080B58EB00FA002F015FE01AA00204FF47031FFF74B
:2071E000BFFBF02809D144F2BF50C0F6020001F049FA4FF0FF300EB080BD0CA1F4280CA0D4
:2072000009A208BF114601F03DFA00200EB080BD436865636B696E67204669726D7761724E
:20722000652E2E2E0000000044465500444658002E2E2E202573204F4B0A000080B505A0BE
:2072400001F020FA4AF2ED20C0F60100FFF7CAFB012080BD56616C69646174696E672043A4
:2072600052432E2E2E0A000080B54BF6FF71C0F20301002007F0F2FF002080BD70B598B077
:207280004FF6FF71C0F20F014FF4202007F0E6FF41F64471C2F200010026182004220E6085
:2072A0000BF06AFF41F240416C46C0F6020120465D22FDF775F845F20755C0F60205284647
:2072C0004FF4A97122468DF85D6003F001FD41F2A0416C46C0F6020120465D22FDF760F806
:2072E000284640F2531122468DF85D6003F0F0FC002018B070BD000080B545F60800C2F2C0
:2073000000000121017045F2F471C2F200010DA0086041F64470C2F2000000684FF42022E8
:2073200008814FF44060488145F2F170C2F200004A6000220078C1F80E20002104F07AF81A
:20734000002080BD0A0A4556454E54206C6F673A0000000080B5002000210022FFF78EFF83
:20736000002818BF80BD002000210022FFF73AFE80BD00002DE9F04F99B002F025FD02A8A7
:207380000CF048FD41F20570C0F6020002F038FD42F2E020C2F2000000F11C0642F2600096
:2073A000C2F2000041F23E7800F108044FF0000A0DF1140BC0F602084FF00009002716E0A8
:2073C0005846FDF741F854F8083C2568584441463A46009519F08CF9584602F011FDC4E9B4
:2073E00000AA01372836282F04F110041FD03068D0B142F220007168ADF8140058460F2230
:207400008DF825A08DF816A0FDF74AF8FDF71CF81028D5DC0BEB0002C0F11101104620226D
:20742000FCF7DEFFCCE700BF09F10109D9E742F26000C2F200004FF42071FCF7D8FF05A0BB
:20744000494601F01FF902F0BFFC002019B000F00BB800BF467265652068616E646C65730B
:207460003A2025750A00000030BCBDE8C08F00002DE9F04F87B042F62B13C2F200031B78E2
:20748000002B00F08480D6B28346082E6FF0010000F28D800122B24012F48B7F00F08780CB
:2074A00001F10F00C11700EB117020F00F0A02AD0FF21C190FF2101841A748A4019600BF26
:2074C00058462946102208F063FC00286AD039A0594601F0D7F8082E1CD0042E0ED0022E1A
:2074E00024D16FF0010600BFA8194188384601F0C9F802360E2EF7D122E000BF6FF0030653
:20750000A8194168404601F0BDF804360C2EF7D116E000BF6FF00706A819D0E9022348464B
:2075200001F0B0F80836082EF6D109E04FF0FF36A8194178204601F0A5F801360F2EF7D170
:2075400028A04F4602F0DCFB4FF0FF3905EB090090F901001F28D8BF2E20C0B202F0E4FB9C
:2075600009F10109B9F10F0FF0D120A001F08AF8019E0BF1100BBAF1200FAAF1100AB94607
:207580000FA716A49CDA002007B000F039B845F64400C0F6020001F075F84FF0FF3007B093
:2075A00000F02EB812A002F02BFC4FF0FF3007B000F026B83078253038783A200000000030
:2075C00025303478200000002530386C78200000253031366C6C78200000000025303278CE
:2075E0002000000020202020000000000A000000436869702052656164206572726F720077
:2076000030BCBDE8C08F0000B0B584B042F62B13C2F200031B78A3B195B2102D044628BF28
:207620001025012D04DBCAB268462946FCF7D8FE694620462A4608F077FC48B1002004B0E9
